{
  "contractName": "DappRoken",
  "abi": [
    {
      "constant": true,
      "inputs": [],
      "name": "totalSupply",
      "outputs": [
        {
          "name": "",
          "type": "uint256"
        }
      ],
      "payable": false,
      "stateMutability": "view",
      "type": "function"
    },
    {
      "constant": false,
      "inputs": [],
      "name": "DappToken",
      "outputs": [],
      "payable": false,
      "stateMutability": "nonpayable",
      "type": "function"
    }
  ],
  "bytecode": "0x608060405234801561001057600080fd5b5060c88061001f6000396000f3006080604052600436106049576000357c0100000000000000000000000000000000000000000000000000000000900463ffffffff16806318160ddd14604e5780636f75cd14146076575b600080fd5b348015605957600080fd5b506060608a565b6040518082815260200191505060405180910390f35b348015608157600080fd5b5060886090565b005b60005481565b620f42406000819055505600a165627a7a72305820d4e81f5b92ae220405d05cc4d810eff2d130dc47f766d68a6c84d90de0aba8ce0029",
  "source": "pragma solidity ^0.4.2;\n\ncontract DappRoken {\n    // constructor \n    // Set total number of tokens\n    // Read total number of tokens\n    uint256 public totalSupply;\n    function DappToken () public{\n        totalSupply=1000000;\n    }\n}",
  "sourcePath": "/home/digikonn-a/Documents/DappUniversity/token_sale/contracts/DappToken.sol",
  "compiler": {
    "name": "solc",
    "version": "0.4.24+commit.e67f0147.Emscripten.clang"
  },
  "schemaVersion": "2.0.1",
  "updatedAt": "2018-08-20T05:55:54.630Z"
}